:100000000C9443000C9460000C9460000C9460000D
:100010000C9460000C94A5070C9460000C94600094
:100020000C9460000C9460000C9460000C946000D0
:100030000C9460000C9460000C9481070C94600098
:100040000C9460000C9460000C94930B0C94C90BFE
:100050000C9460000C9460000C9460000C946000A0
:100060000C9460000C94600005A84CCDB2D44EB93D
:100070003836A9020C50B9918688083CA6AAAA2A4B
:10008000BE000000803F11241FBECFEFD8E0DEBFCE
:10009000CDBF11E0A0E0B1E0EAE8F4E202C00590D3
:1000A0000D92A631B107D9F712E0A6E1B1E001C087
:1000B0001D92AF39B107E1F70E94870C0C944312EF
:1000C0000C9400000E94430C80E090E0089588E6C4
:1000D0006EE340E80E94070B88E665E140E00E947D
:1000E000070B88E666E14CE10E94070B88E66EE3A9
:1000F00043E00E94070B08950F931F93CF93DF9364
:100100008CE08093B80088E66DE10E948C0B9091A2
:10011000610280E00091620210E0082B192B10951B
:1001200001951F4F159507951595079590916302B9
:1001300080E0C0916402D0E0C82BD92BD095C19546
:10014000DF4FD595C795D595C795EFE5F2E090813E
:1001500080E0618170E0682B792B759567957595C6
:100160006795882777FD8095982F0E94930D2091A1
:1001700071023091720240917302509174020E9498
:100180008C0C0E94600DDC01CB0190934C0280939B
:100190004B02B801882777FD8095982F0E94930D18
:1001A0002091750230917602409177025091780249
:1001B0000E948C0C0E94600DDC01CB0190934E02DA
:1001C00080934D02BE01882777FD8095982F0E946D
:1001D000930D2091790230917A0240917B025091E7
:1001E0007C020E948C0C0E94600DDC01CB0190937C
:1001F000500280934F02DF91CF911F910F9108958C
:1002000080E46DE040E10E94070B80E460E20E9420
:100210007B0B482F4F7080E460E20E94070B80E464
:1002200060E30E947B0B482F4C7F80E460E30E94D8
:10023000070B80E465E30E947B0B482F417F4460FD
:1002400080E465E30E94070B08958CE08093B8007A
:1002500080E462E00E948C0B3091620220E0809189
:10026000610290E0822B932B54E0959587955A95E7
:10027000E1F790935202809351023091600220E0A6
:10028000EFE5F2E0808190E0822B932B64E095957E
:1002900087956A95E1F790935402809353023581D4
:1002A00020E0848190E0822B932B74E095958795D4
:1002B0007A95E1F7909356028093550208954F92F4
:1002C0005F926F927F928F929F92AF92BF92CF92E6
:1002D000DF92EF92FF920F931F93CF93DF932B0147
:1002E0003C0149015A010E94930D6B017C01C5013B
:1002F000B4010E94930D9B01AC01C701B6010E949D
:10030000F80CD62FC72F182F092F920157FE03C0C4
:10031000309521953F4FC40197FE03C0909581957C
:100320009F4FAE0128173907F4F59801852F9C2FB0
:10033000A32FB02FBC01CD0120E030E44FE054E406
:100340000E94800E6B017C01AE019801852F9C2FCD
:10035000A32FB02FBC01CD0129E23CE54FE85EE3BD
:100360000E94800EFE01A8010F2F1C2F252F342F75
:10037000A90198010E94800E20E030E040E85FE390
:100380000E948D0C9B01AC01C701B6010E94F80CC4
:100390000E94600DDC01CB01B7FE42C077FC3EC07D
:1003A000885F984F3DC09801852F9C2FA32FB02FB9
:1003B000BC01CD0120E030E44FE054E40E94800E07
:1003C0006B017C01AE019801852F9C2FA32FB02FCC
:1003D000BC01CD01FE01A8010F2F1C2F252F3B2FA3
:1003E000A90198010E94800E29E23CE54FE85EE3F6
:1003F0000E948D0C9B01AC01C701B6010E94F80C54
:100400009B01AC0160E070E081E694E40E948C0CFA
:100410000E94600DDC01CB0177FE02C0885097403E
:10042000DF91CF911F910F91FF90EF90DF90CF90D0
:10043000BF90AF909F908F907F906F905F904F9004
:1004400008952F923F924F925F926F927F928F9278
:100450009F92AF92BF92CF92DF92EF92FF920F9353
:100460001F93CF93DF93CDB7DEB768970FB6F8949D
:10047000DEBF0FBECDBF0091550210915602B801EC
:10048000882777FD8095982F0E94930D0E942B0F4F
:100490006B017C014090530250905402662457FC3B
:1004A0006094762CC301B2010E94930D0E942B0F21
:1004B0009B01AC01C701B6010E948D0C0E94ED0E9C
:1004C00069837A838B839C8380905102909052023F
:1004D000AA2497FCA094BA2CC501B4010E94930DE4
:1004E0000E942B0F9B01AC01C701B6010E948D0C2D
:1004F0000E94ED0E6B017C0117FF04C0F7FAF09427
:10050000F7F8F09469817A818B819C810E94600D5B
:100510009B01AC01C501B4010E945F019E838D83E4
:100520009093660280936502C701B6010E94600D38
:100530009B01AC01C301B2010E945F0198878F83C8
:1005400090936802809367028091430290914402E5
:10055000A0914502B091460289879A87AB87BC87F4
:10056000BC01CD012AE939E34FE054E40E94F80CC4
:10057000C62E372E282E192F862F932DA22DB12F60
:10058000BC01CD010E94F50C2B013C0160914B0296
:1005900070914C02882777FD8095982F0E94930DCB
:1005A000A30192010E94800E062FF72EE82ED92E6D
:1005B00080913F0290914002A0914102B09142028D
:1005C0008D879E87AF87B88BBC01CD012AE939E3BF
:1005D0004FE054E40E94F80C0E94E30E4B015C01D2
:1005E0008C2D932DA22DB12FBC01CD010E94E30EC5
:1005F00069837A838B839C83C501B40129813A8105
:100600004B815C810E94800E0E942B0F9B01AC01EC
:1006100060E070E080E89FE30E948C0C0E94ED0E89
:100620009B01AC01802F9F2DAE2DBD2DBC01CD01B6
:100630000E94F80C362E272E8D8B9E8B60914F02D8
:1006400070915002882777FD8095982F0E94930D16
:10065000698B7A8B8B8B9C8B29813A814B815C8156
:100660000E94800E6F8B788F182F092FC501B4015F
:10067000A30192010E94800E0E942B0F9B01AC01EE
:1006800060E070E080E89FE30E948C0C0E94ED0E19
:100690004B015C01AD81BE81BD01882777FD80954E
:1006A000982F0E94930D2AE037ED43E25CE30E940D
:1006B000800E6B017C016D857E858F85988924EA8B
:1006C00030E74DE75FE30E94800E9B01AC01C7015C
:1006D000B6010E948D0C6B017C015F89488D9801E9
:1006E000852F942FA32FB22FBC01CD01A50194011A
:1006F0000E94F80C9B01AC01F1017D896E898F2F5E
:100700009E2FA72FB62FBC01CD010E948D0C21E991
:100710003BE941EE5CE30E94800E9B01AC01C70106
:10072000B6010E948D0C9B01F82FE92F462F532F05
:10073000682F792F40933F0250934002609341020B
:1007400070934202822F932FAF2FBE2FBC01CD0199
:100750002AE939E34FE054E40E94F80CF62EC72E44
:10076000E82E192F862F9C2DAE2DB12FBC01CD0167
:100770000E94F50C4B015C0160914D0270914E029C
:10078000882777FD8095982F0E94930DA5019401ED
:100790000E94800E062F472E782E692E8F2D9C2DBD
:1007A000AE2DB12FBC01CD010E94E30E6B017C0187
:1007B00069817A818B819C81A70196010E94800EBC
:1007C0000E942B0F20E030E040E85FE30E948D0C98
:1007D0000E94ED0E9B01AC01B301802F942DA72F39
:1007E000B62FBC01CD010E94F80C762E672E2C018D
:1007F00069897A898B899C89A70196010E94800E5C
:10080000362E272E182F092F69817A818B819C81A2
:10081000A50194010E94800E0E942B0F9B01AC0148
:1008200060E070E080E89FE30E948C0C0E94ED0E77
:100830004B015C01EF81F885BF01882777FD80952A
:10084000982F0E94930D2AE037ED43E25CE30E946B
:10085000800E6B017C0169857A858B859C8524EAF5
:1008600030E74DE75FE30E94800E9B01AC01C701BA
:10087000B6010E948D0C6B017C01A1019801852FAE
:10088000942FA32FB22FBC01CD01A50194010E948A
:10089000F80C9B01AC01F3018F2F9E2FA42DB52DD9
:1008A000BC01CD010E948C0C21E93BE941EE5CE3E7
:1008B0000E94800E9B01AC01C701B6010E948D0C05
:1008C000DC01CB018093430290934402A093450244
:1008D000B093460268960FB6F894DEBF0FBECDBF48
:1008E000DF91CF911F910F91FF90EF90DF90CF900C
:1008F000BF90AF909F908F907F906F905F904F9040
:100900003F902F900895CF92DF92EF92FF920F9336
:100910001F93CF93DF936091240170912501882765
:1009200077FD8095982F0E94930D20913F02309182
:10093000400240914102509142020E948C0CD62FFD
:10094000C72F182F092FAE019801852F942FA32FA1
:10095000B22FBC01CD0123EE35EA4BE950E40E94F1
:10096000800E2091690230916A0240916B02509191
:100970006C020E948D0C6B017C0160917D02709174
:100980007E0280917F029091800229E134E04AE961
:1009900050E40E94800E9B01AC01C701B6010E9489
:1009A0008C0C9B01462F532F682F792F409369029F
:1009B00050936A0260936B0270936C02DE01F8013F
:1009C0004B2F5A2F6F2F7E2F40937D0250937E0224
:1009D00060937F0270938002582F492F822F932FAC
:1009E000A52FB42FBC01CD0120E030E04AE754E44C
:1009F0000E947C0E181664F480E090E0AAE7B4E44C
:100A00008093690290936A02A0936B02B0936C0288
:100A10006091690270916A0280916B0290916C0200
:100A200020E030E04AE754EC0E94F10C87FF0CC054
:100A300080E090E0AAE7B4EC8093690290936A02A8
:100A4000A0936B02B0936C0260914B0270914C02C8
:100A5000882777FD8095982F0E94930D9B01AC010C
:100A60006091690270916A0280916B0290916C02B0
:100A70000E948C0CD62FC72F182F092FAE0198017A
:100A8000852F942FA32FB22FBC01CD012BE13FE284
:100A90004DE150E40E94800E6B017C016091570291
:100AA000709158028091590290915A0220EA3AE1DD
:100AB00047E150E40E94800E9B01AC01C701B601E2
:100AC0000E948C0C0E94600DDC01CB0190931701F9
:100AD00080931601AE019801852F942FA32FB22F7A
:100AE0008093570290935802A0935902B0935A02F0
:100AF0006091260170912701882777FD8095982FB6
:100B00000E94930D2091430230914402409145028E
:100B1000509146020E948C0CD62FC72F182F092FF8
:100B2000AE019801852F942FA32FB22FBC01CD01C8
:100B300023EE35EA4BE950E40E94800E20916D02CD
:100B400030916E0240916F02509170020E948D0CA4
:100B50006B017C016091810270918202809183021D
:100B60009091840229E134E04AE950E40E94800E29
:100B70009B01AC01C701B6010E948C0C9B01462F62
:100B8000532F682F792F40936D0250936E0260931C
:100B90006F0270937002DE01F8014B2F5A2F6F2FF6
:100BA0007E2F409381025093820260938302709360
:100BB0008402582F492F822F932FA52FB42FBC01C9
:100BC000CD0120E030E04AE754E40E947C0E181684
:100BD00064F480E090E0AAE7B4E480936D0290931F
:100BE0006E02A0936F02B093700260916D027091DB
:100BF0006E0280916F029091700220E030E04AE72F
:100C000054EC0E94F10C87FF0CC080E090E0AAE752
:100C1000B4EC80936D0290936E02A0936F02B09338
:100C2000700260914D0270914E02882777FD809589
:100C3000982F0E94930D9B01AC0160916D02709101
:100C40006E0280916F02909170020E948C0CD62FE0
:100C5000C72F182F092FAE019801852F942FA32F8E
:100C6000B22FBC01CD012BE13FE24DE150E40E94E7
:100C7000800E6B017C0160915B0270915C0280913F
:100C80005D0290915E0220EA3AE147E150E40E9461
:100C9000800E9B01AC01C701B6010E948C0C0E9422
:100CA000600DDC01CB019093190180931801AE0116
:100CB0009801852F942FA32FB22F80935B029093DE
:100CC0005C02A0935D02B0935E0280912A01909134
:100CD0002B0120914F0230915002821B930B909375
:100CE0001B0180931A01DF91CF911F910F91FF900B
:100CF000EF90DF90CF900895A0912801B091290145
:100D00002091160130911701FD01E20FF31F409170
:100D100018015091190160911A0170911B01CF01C6
:100D2000841B950B861B970B9093860280938502FC
:100D3000CD01821B930B9C01840F951F861B970B83
:100D40009093880280938702241B350B260F371F50
:100D500030938A02209389024E0F5F1F460F571F60
:100D600050938C0240938B02E5E8F2E028EE33E0EA
:100D70004AE550E08081918163E0893E960714F056
:100D800031832083808191818A35910514F45183C8
:100D90004083AA30B10514F411821082329682E0A9
:100DA000ED38F80739F70895809185029091860211
:100DB000E3E095958795EA95E1F783588093B30032
:100DC0008091870290918802F3E095958795FA9536
:100DD000E1F783588093B4008091890290918A0250
:100DE000959587959595879586509F4F9093890007
:100DF0008093880080918B0290918C0295958795C5
:100E00009595879586509F4F90938B0080938A008D
:100E10000895219A229A239A539A259AF89414BCF9
:100E200015BC16BC8FE987BD84B5826084BD85B5CD
:100E3000816085BDEEE6F0E0808182608083E8E637
:100E4000F0E0808184608083EDE6F0E08081806F57
:100E500080837894A0E8B0E01C92E1E8F0E0108292
:100E600010928500109284008AEF90E090938900A0
:100E70008093880090938B0080938A008C91806887
:100E80008C938C9180628C938C9182608C93808106
:100E9000886080838081826080838081816080839C
:100EA000E0EBF0E01082A1EBB0E01C921092B200F7
:100EB0008DE78093B3008093B40080818068808345
:100EC0008081806280838081826080838081816074
:100ED00080838C9184608C938C9181608C9380E171
:100EE00090E00E94F50B88E091E090939C02809343
:100EF0009B028CE08093B8000E9467000E94000172
:100F000008951F920F920FB60F9211242F938F9373
:100F10009F9380913101909132010196909332011B
:100F20008093310123E0893E92073CF081E0809379
:100F3000300110923201109231019F918F912F91C7
:100F40000F900FBE0F901F9018951F920F920FB623
:100F50000F9211242F933F934F935F938F939F93FF
:100F600089B14091370190E080729070242F30E079
:100F700082179307A9F180913101909132014423A6
:100F800039F120911C0130911D01821B930B90932C
:100F90001D0180931C0197FF06C088519C4F9093C0
:100FA0001D0180931C0120911C0130911D01C9017C
:100FB000880F991F53E0220F331F5A95E1F7820FD4
:100FC000931F8C5D9540909325018093240104C06C
:100FD00090931D0180931C0189B180728093370129
:100FE00089B14091380190E080719070242F30E0F9
:100FF00082179307A9F18091310190913201442326
:1010000039F120911E0130911F01821B930B9093A7
:101010001F0180931E0197FF06C088519C4F90933B
:101020001F0180931E0120911E0130911F01C901F3
:10103000880F991F53E0220F331F5A95E1F7820F53
:10104000931F8C5D9540909327018093260104C0E7
:1010500090931F0180931E0189B1807180933801A4
:1010600089B14091360190E080749070242F30E077
:1010700082179307A9F180913101909132014423A5
:1010800039F12091200130912101821B930B909323
:1010900021018093200197FF06C088519C4F9093B7
:1010A0002101809320012091200130912101C9016B
:1010B000880F991F53E0220F331F5A95E1F7820FD3
:1010C000931F8C549440909329018093280104C06D
:1010D000909321018093200189B18074809336011F
:1010E00089B14091350190E080789070242F30E0F4
:1010F00082179307A1F1809131019091320144232D
:1011000031F12091220130912301821B930B9093A6
:1011100023018093220197FF06C088519C4F909332
:10112000230180932201409122015091230126EF57
:101130003FEF429FC001439F900D529F900D11249D
:1011400084529A4F90932B0180932A0104C090936C
:1011500023018093220189B18078809335019F918A
:101160008F915F914F913F912F910F900FBE0F90F4
:101170001F901895CF92DF92EF92FF92CF93DF935B
:1011800080912E0190912F01019690932F018093D1
:101190002E0120913001213009F0E8C11092300178
:1011A00000D000D020E031E0EDB7FEB732832183DC
:1011B000948383830E94790F10922F0110922E0145
:1011C0000F900F900F900F900E947C000E942501BD
:1011D0002091340180912A0190912B01222309F062
:1011E00008C1F1E0833C9F0764F080912801909151
:1011F00029018A3091052CF4809133018F5F80930F
:10120000330180913301823309F051C081E0809332
:10121000340160918D0270918E0280918F029091C5
:1012200090020E94600D882777FD8095982F0E947C
:10123000930DDC01CB018093710290937202A09315
:101240007302B09374026091910270919202809146
:101250009302909194020E94600D882777FD8095FB
:10126000982F0E94930DDC01CB018093750290931F
:101270007602A0937702B093780260919502709104
:10128000960280919702909198020E94600D8827A3
:1012900077FD8095982F0E94930DDC01CB01809300
:1012A000790290937A02A0937B02B0937C02109211
:1012B0008602109285021092880210928702109284
:1012C0008A021092890210928C0210928B022D9841
:1012D00060914B0270914C02882777FD8095982F82
:1012E0000E94930D2DEC3CEC4CEC5DE30E94800ED3
:1012F0006B017C0160918D0270918E0280918F0252
:101300009091900226E636E646E65FE30E94800E64
:101310009B01AC01C701B6010E948D0CDC01CB0121
:1013200080938D0290938E02A0938F02B0939002CF
:1013300060914D0270914E02882777FD8095982F1D
:101340000E94930D2DEC3CEC4CEC5DE30E94800E72
:101350006B017C01609191027091920280919302E5
:101360009091940226E636E646E65FE30E94800E00
:101370009B01AC01C701B6010E948D0CDC01CB01C1
:101380008093910290939202A0939302B09394025F
:1013900060914F0270915002882777FD8095982FB9
:1013A0000E94930D2DEC3CEC4CEC5DE30E94800E12
:1013B0006B017C0160919502709196028091970279
:1013C0009091980226E636E646E65FE30E94800E9C
:1013D0009B01AC01C701B6010E948D0CDC01CB0161
:1013E0008093950290939602A0939702B0939802EF
:1013F00038C02EEF8E33920764F4809128019091CB
:1014000029018A3091052CF4809133018150809319
:101410003301809133018823E9F41092340180E094
:1014200090E0DC018093710290937202A0937302AA
:10143000B09374028093750290937602A093770222
:10144000B09378028093790290937A02A0937B0202
:10145000B0937C022D9A0E9421020E9483040E9474
:101460007C060E94D40600D000D0C0E0D1E0EDB7E9
:10147000FEB7D283C183809124019091250194838A
:1014800083830E94790FEDB7FEB7D283C183809129
:10149000260190912701948383830E94790FEDB7F1
:1014A000FEB7D283C18380912A0190912B0194834E
:1014B00083830E94790FEDB7FEB7D283C1838091F9
:1014C0004B0290914C02948383830E94790FEDB775
:1014D000FEB7D283C18380914D0290914E029483D6
:1014E00083830E94790FEDB7FEB7D283C1838091C9
:1014F0004F0290915002948383830E94790FCDB65E
:10150000DEB60894C11CD11CEDB7FEB7D283C183EF
:1015100060913F027091400280914102909142029D
:101520000E94600DDC01CB01F601938382830E944F
:10153000790FCDB7DEB7219684E091E0EDB7FEB725
:1015400092838183609143027091440280914502AD
:10155000909146020E94600DDC01CB019B838A833F
:101560000E94790F0F900F900F900F90DF91CF9105
:10157000FF90EF90DF90CF9008958FEF90E005C03F
:10158000019719F41092BC0008952091BC0027FF28
:10159000F7CF089584E98093BC000895CF93C82FB6
:1015A000882311F084EC01C084E88093BC000E9481
:1015B000BD0A8091BB00CC2319F494E99093BC0040
:1015C000CF9108950F931F93CF93DF930F92CDB7D1
:1015D000DEB70CEB10E094EAF801908389830E9457
:1015E000BD0A89818093BB0084E8F80180830E9452
:1015F000BD0A0F90DF91CF911F910F9108958093B5
:10160000BB0084E88093BC000E94BD0A0895CF937C
:10161000DF9300D0CDB7DEB7880F4A8369830E947D
:10162000E20A6981862F0E94FF0A4A81842F0E9464
:10163000FF0A84E98093BC000F900F90DF91CF9157
:101640000895CF92DF92EF92FF920F931F93CF9363
:10165000DF9300D0CDB7DEB7F42EE52E880F816082
:1016600069837A830E94E20A6981062F7A81172FA3
:10167000CF2CDE2C0DC00894C108D10881E0C11424
:10168000D10409F480E00E94CE0AF80181938F0111
:10169000C114D10481F78F2D9E2D0F900F90DF91F3
:1016A000CF911F910F91FF90EF90DF90CF90089511
:1016B000CF92DF92FF920F931F93CF93DF930F92FE
:1016C000CDB7DEB7F82E6A018901880F69830E94C1
:1016D000E20A6981862F0E94FF0A8F2DB601A801B8
:1016E0000E94210B0F90DF91CF911F910F91FF90DE
:1016F000DF90CF900895CF93DF930F92CDB7DEB7F1
:10170000AE014F5F5F4F21E030E00E94580B8981AE
:101710000F90DF91CF9108954FE552E026E030E041
:101720000E94580B08951F920F920FB60F9211242A
:101730002F933F934F935F938F939F93EF93FF93D9
:101740005091C0004091C60080913C0190E001960C
:101750008F77907020913B0130E08217930749F01A
:10176000252F287180933C01815C9E4FFC014083B2
:1017700001C022E020933A01FF91EF919F918F9158
:101780005F914F913F912F910F900FBE0F901F903F
:1017900018951F920F920FB60F9211248F939F935B
:1017A000EF93FF9390913E0180913D01981779F05E
:1017B00080913D0190E001968F77907080933D017C
:1017C00081549E4FFC0180818093C60005C08091AA
:1017D000C1008F7D8093C100FF91EF919F918F9108
:1017E0000F900FBE0F901F90189510923E0110920F
:1017F0003D0110923C0110923B0197FF04C022E092
:101800002093C0009F779093C5008093C40088E91F
:101810008093C10086E08093C200089590913C01BE
:1018200080913B01981799F080913B0190E00196DF
:101830008F77907080933B01815C9E4FFC012081EB
:1018400030913A01932F80E0820F911D089580E03E
:1018500091E0089590913C0180913B01981781F0AF
:10186000E0913B01F0E03196EF77F070E15CFE4FE4
:10187000208130913A01932F80E0820F911D0895CD
:1018800080E091E0089520913E0130E02F5F3F4FCE
:101890002F77307040913D0150E024173507D1F388
:1018A000F901E154FE4F808320933E018091C100F5
:1018B00080628093C1000895CF93DF93EC0102C052
:1018C0000E94430C89918823D9F7DF91CF91089525
:1018D000CF93DF93EC0102C00E94430CFE012196DE
:1018E00084918823C9F7DF91CF91089580913C01BD
:1018F00020913B0190E080589F4F821B91098F7788
:101900009070089580913B0180933C0108950E945E
:1019100009070E94BA08FDCF5058BB27AA270ED04E
:10192000A0C169D130F06ED120F031F49F3F11F4A5
:101930001EF45EC10EF4E095E7FB54C1E92FB3D16C
:1019400080F3BA17620773078407950718F071F4DC
:101950009EF5CBC10EF4E0950B2EBA2FA02D0B01F6
:10196000B90190010C01CA01A0011124FF27591BE4
:1019700099F0593F50F4503E68F11A16F040A22FEA
:10198000232F342F4427585FF3CF4695379527955B
:10199000A795F0405395C9F77EF41F16BA0B620B5A
:1019A000730B840BBAF09150A1F0FF0FBB1F661FA1
:1019B000771F881FC2F70EC0BA0F621F731F841FE4
:1019C00048F4879577956795B795F7959E3F08F00A
:1019D000B3CF9395880F08F09927EE0F97958795C9
:1019E0000895DCD008F481E0089514D1E3954AC14C
:1019F0000CD037C107D140F0FED030F021F45F3F6A
:101A000019F0F0C0511172C1F3C04DD198F3992370
:101A1000C9F35523B1F3951B550BBB27AA276217B2
:101A20007307840738F09F5F5F4F220F331F441FF7
:101A3000AA1FA9F333D00E2E3AF0E0E830D091502F
:101A40005040E695001CCAF729D0FE2F27D0660F1C
:101A5000771F881FBB1F261737074807AB07B0E85B
:101A600009F0BB0B802DBF01FF2793585F4F2AF071
:101A70009E3F510568F0B6C039C15F3FECF3983E18
:101A8000DCF3869577956795B795F7959F5FC9F7CE
:101A9000880F911D9695879597F90895E1E0660F57
:101AA000771F881FBB1F621773078407BA0720F0D0
:101AB000621B730B840BBA0BEE1F88F7E095089539
:101AC00004D06894B11112C10895F5D088F09F57E1
:101AD00090F0B92F9927B751A0F0D1F0660F771F7A
:101AE000881F991F1AF0BA95C9F712C0B13081F05A
:101AF000FCD0B1E00895F9C0672F782F8827B85F30
:101B000039F0B93FCCF3869577956795B395D9F7BA
:101B10003EF490958095709561957F4F8F4F9F4FC4
:101B20000895E89409C097FB3EF4909580957095D0
:101B300061957F4F8F4F9F4F9923A9F0F92F96E919
:101B4000BB279395F695879577956795B795F1118E
:101B5000F8CFFAF4BB0F11F460FF1BC06F5F7F4F2B
:101B60008F4F9F4F16C0882311F096E911C077233D
:101B700021F09EE8872F762F05C0662371F096E846
:101B8000862F70E060E02AF09A95660F771F881F15
:101B9000DAF7880F9695879597F90895990F0008B9
:101BA000550FAA0BE0E8FEEF16161706E807F9072F
:101BB000C0F012161306E407F50798F0621B730BCA
:101BC000840B950B39F40A2661F0232B242B252B4B
:101BD00021F408950A2609F4A140A6958FEF811DEE
:101BE000811D089597F99F6780E870E060E008958F
:101BF0009FEF80EC089500240A9416161706180625
:101C00000906089500240A94121613061406050600
:101C10000895EECF50D0E8F3E894E0E0BB279F575B
:101C2000F0F02AED3FE049EC06C0EE0FBB0F661F57
:101C3000771F881F28F0B23A62077307840728F0DD
:101C4000B25A620B730B840BE3959A9572F7803846
:101C500030F49A95BB0F661F771F881FD2F7904804
:101C6000FFC0092E0394000C11F4882352F0BB0F1F
:101C700040F4BF2B11F460FF04C06F5F7F4F8F4FA4
:101C80009F4F0895EF93E0FF06C0A2EA2AED3FE0E0
:101C900049EC5FEB53DEE5DF0F90039401FC9058B5
:101CA000E8E6F0E0F0C057FD9058440F551F59F09A
:101CB0005F3F71F04795880F97FB991F61F09F3F39
:101CC00079F087950895121613061406551FF2CF62
:101CD0004695F1DF08C0161617061806991FF1CFB2
:101CE00086957105610508940895E894BB276627D9
:101CF0007727CB0197F9089551DF08F48FEF089506
:101D00000BD0AFCF78DF28F07DDF18F0952309F0F6
:101D100069CF6ECF1124EACFC6DFA0F3959FD1F330
:101D2000950F50E0551F629FF001729FBB27F00D89
:101D3000B11D639FAA27F00DB11DAA1F649F6627DE
:101D4000B00DA11D661F829F2227B00DA11D621F2D
:101D5000739FB00DA11D621F839FA00D611D221FE7
:101D6000749F3327A00D611D231F849F600D211DCB
:101D7000822F762F6A2F11249F5750408AF0E1F06E
:101D800088234AF0EE0FFF1FBB1F661F771F881FB7
:101D900091505040A9F79E3F510570F023CFA6CF38
:101DA0005F3FECF3983EDCF3869577956795B795A2
:101DB000F795E7959F5FC1F7FE2B880F911D9695CC
:101DC000879597F908959F9325DF0F9007FCEE5FA5
:101DD00059CF11F40EF40CCF41C06DDFD0F399232D
:101DE000D9F3CEF39F57550B87FF46D00024A0E6CA
:101DF00040EA900180585695979528F4805C660FCC
:101E0000771F881F20F026173707480730F4621B1A
:101E1000730B840B202931294A2BA695179407941C
:101E2000202531254A2758F7660F771F881F20F095
:101E300026173707480730F4620B730B840B200D0D
:101E4000311D411DA09581F7B901842F9158880F4C
:101E50009695879508959B01AC0152CF9F3F31F035
:101E6000915020F4879577956795B795880F911DC8
:101E70009695879597F9089591505040660F771F72
:101E8000881FD2F708959F938F937F936F93FF934B
:101E9000EF939B01AC0134DFEF91FF9105D02F91BF
:101EA0003F914F915F912CCFDF93CF931F930F936F
:101EB000FF92EF92DF927B018C01689405C0DA2ECD
:101EC000EF012ADFFE01E894A59125913591459116
:101ED0005591AEF3EF0132DDFE019701A801DA94CE
:101EE00079F7DF90EF90FF900F911F91CF91DF91E5
:101EF0000895A0E0B0E0EFE7FFE00C941C12FE01B3
:101F000035966191719180919B0290919C02AF01F5
:101F10000E948E0F2096E2E00C943812ADE0B0E003
:101F2000E4E9FFE00C940C123C017D876C875A01B8
:101F3000FC0117821682838181FFC8C12E0108949B
:101F4000411C511CF3019381EC85FD8593FD859126
:101F500093FF8191FD87EC87882309F4B3C1853213
:101F600041F493FD859193FF8191FD87EC87853244
:101F700029F490E0B3010E948211E4CFFF24EE2403
:101F800010E01032B0F48B3269F08C3228F48032D9
:101F900051F0833271F40BC08D3239F0803349F443
:101FA00011602CC01260146029C0186027C0106135
:101FB00025C017FD2EC0282F20532A3098F416FF75
:101FC00008C08F2D880FF82EFF0CFF0CF80EF20EB4
:101FD00015C08E2D880FE82EEE0CEE0CE80EE20EEA
:101FE00010620CC08E3221F416FD6CC1106406C064
:101FF0008C3611F4106802C0883659F4EC85FD85E2
:1020000093FD859193FF8191FD87EC87882309F0EB
:10201000B8CF982F9554933018F09052933038F4ED
:1020200024E030E0A20EB31E3FE339830FC08336B5
:1020300031F0833781F0833509F05AC022C0F501B1
:102040008081898322E030E0A20EB31E21E0C22EFF
:10205000D12C420114C092E0292E312C2A0C3B1CB9
:10206000F5018080918016FF03C06F2D70E002C0E3
:102070006FEF7FEFC4010E9477116C0151011F7750
:1020800015C082E0282E312C2A0C3B1CF5018080E3
:10209000918016FF03C06F2D70E002C06FEF7FEFDD
:1020A000C4010E946C116C011068510113FD1CC029
:1020B00006C080E290E0B3010E948211EA948E2D66
:1020C00090E0C816D906A8F30FC0F40117FD85915A
:1020D00017FF81914F0190E0B3010E948211E1103E
:1020E000EA940894C108D108C114D10471F7E7C07B
:1020F000843611F0893651F5F50117FF07C080814C
:102100009181A281B38124E030E008C08081918177
:10211000AA2797FDA095BA2F22E030E0A20EB31EA9
:10212000012F0F76B7FF08C0B095A09590958195C7
:102130009F4FAF4FBF4F0068BC01CD01A2012AE005
:1021400030E00E94AE11D82ED4183FC0853721F45C
:102150001F7E2AE030E020C0197F8F36A9F080373B
:1021600020F4883509F0AEC00BC0803721F08837E5
:1021700009F0A8C001C0106114FF09C0146007C0B5
:1021800014FF08C0166006C028E030E005C020E15A
:1021900030E002C020E132E0F50117FF07C06081A6
:1021A00071818281938144E050E006C06081718139
:1021B00080E090E042E050E0A40EB51EA2010E9433
:1021C000AE11D82ED418012F0F7706FF09C00E7F4D
:1021D000DF1430F404FF06C002FD04C00F7E02C00D
:1021E0001D2D01C01F2D802F90E004FF0CC0FE01AB
:1021F000ED0DF11D2081203311F4097E09C002FF8D
:1022000006C01E5F05C086789070009709F01F5FBA
:10221000802E992403FD12C000FF0DC0FD2C1E1559
:1022200050F4FE0CF11A1E2D06C080E290E0B301BE
:102230000E9482111F5F1E15C0F304C01E1510F40A
:10224000E11A01C0EE2484FE0FC080E390E0B301E8
:102250000E94821182FE1FC081FE03C088E590E0CB
:1022600010C088E790E00DC0C40186789070009798
:1022700091F081FC02C080E201C08BE207FD8DE29B
:1022800090E0B3010E94821106C080E390E0B301A8
:102290000E948211FA94DF14C0F3DA94F201ED0D7A
:1022A000F11D808190E0B3010E948211DD20A9F729
:1022B00006C080E290E0B3010E948211EA94EE2011
:1022C000C1F740CEF3018681978102C08FEF9FEF67
:1022D0002D96E2E10C942812FC01059061507040AB
:1022E0000110D8F7809590958E0F9F1F0895FC01DF
:1022F0006150704001900110D8F7809590958E0F35
:102300009F1F08950F931F93CF93DF938C01EB01D1
:102310008B8181FF1BC082FF0DC02E813F818C818C
:102320009D812817390764F4E881F9810193F983C5
:10233000E88306C0E885F985802F0995009731F478
:102340008E819F8101969F838E8302C00FEF1FEFC6
:10235000C801DF91CF911F910F910895FA01AA272B
:10236000283051F1203181F1E8946F936E7F6E5FD8
:102370007F4F8F4F9F4FAF4FB1E03ED0B4E03CD086
:10238000670F781F891F9A1FA11D680F791F8A1F69
:10239000911DA11D6A0F711D811D911DA11D20D0D0
:1023A00009F468943F912AE0269F11243019305D8A
:1023B0003193DEF6CF010895462F4770405D41937B
:1023C000B3E00FD0C9F7F6CF462F4F70405D4A33C8
:1023D00018F0495D31FD4052419302D0A9F7EACF90
:1023E000B4E0A6959795879577956795BA95C9F7BF
:1023F00000976105710508959B01AC010A2E0694B2
:102400005795479537952795BA95C9F7620F731F6A
:10241000841F951FA01D08952F923F924F925F92A7
:102420006F927F928F929F92AF92BF92CF92DF92E4
:10243000EF92FF920F931F93CF93DF93CDB7DEB749
:10244000CA1BDB0B0FB6F894DEBF0FBECDBF0994DD
:102450002A88398848885F846E847D848C849B8434
:10246000AA84B984C884DF80EE80FD800C811B8142
:10247000AA81B981CE0FD11D0FB6F894DEBF0FBE71
:0A248000CDBFED010895F894FFCFE1
:10248A002564090025640A0000000002000000001B
:06249A00620000000000DA
:00000001FF
