:100000000C9443000C9460000C9460000C9460000D
:100010000C9460000C9414060C9460000C94600026
:100020000C9460000C9460000C9460000C946000D0
:100030000C9460000C9460000C94F0050C9460002B
:100040000C9460000C9460000C94F7090C942D0A39
:100050000C9460000C9460000C9460000C946000A0
:100060000C9460000C94600005A84CCDB2D44EB93D
:100070003836A9020C50B9918688083CA6AAAA2A4B
:10008000BE000000803F11241FBECFEFD8E0DEBFCE
:10009000CDBF11E0A0E0B1E0EAEFF0E202C00590D0
:1000A0000D92A631B107D9F712E0A6E1B1E001C087
:1000B0001D92AB3AB107E1F70E94EB0A0C947B105A
:1000C0000C9400000E94A70A80E090E0089588E662
:1000D0006EE340E80E946B0988E665E140E00E941B
:1000E0006B0988E666E14CE10E946B0988E66EE3E5
:1000F00043E00E946B0908950F931F93CF93DF9302
:100100008CE08093B80088E66DE10E94F009909140
:100110007D0280E000917E0210E0082B192B1095E3
:1001200001951F4F159507951595079590917F029D
:1001300080E0C0918002D0E0C82BD92BD095C1952A
:10014000DF4FD595C795D595C795EBE7F2E0908140
:1001500080E0618170E0682B792B759567957595C6
:100160006795882777FD8095982F0E94F30B209143
:1001700085023091860240918702509188020E9448
:10018000F00A0E94C00BDC01CB01909370028093B7
:100190006F02B801882777FD8095982F0E94F30B96
:1001A0002091890230918A0240918B0250918C02F9
:1001B0000E94F00A0E94C00BDC01CB0190937202F6
:1001C00080937102BE01882777FD8095982F0E9449
:1001D000F30B20918D0230918E0240918F0250914D
:1001E00090020E94F00A0E94C00BDC01CB019093A8
:1001F000740280937302DF91CF911F910F91089544
:1002000080E46DE040E10E946B0980E460E20E94BE
:10021000DF09482F4F70406780E460E20E946B095D
:1002200080E460E30E94DF09482F4C7F80E460E3B4
:100230000E946B0980E465E30E94DF09482F417F3B
:10024000446080E465E30E946B0908958CE080932C
:10025000B80080E462E00E94F00930917E0220E064
:1002600080917D0290E0822B932B54E095958795A9
:100270005A95E1F7909376028093750230917C0253
:1002800020E0EBE7F2E0808190E0822B932B64E0AA
:10029000959587956A95E1F7909378028093770218
:1002A000358120E0848190E0822B932B74E095953A
:1002B00087957A95E1F790937A0280937902089571
:1002C0004F925F926F927F928F929F92AF92BF9266
:1002D000CF92DF92EF92FF920F931F93CF93DF9312
:1002E0002B013C0149015A010E94F30B6B017C0177
:1002F000C501B4010E94F30B9B01AC01C701B6011B
:100300000E94580BD62FC72F182F092F920157FE86
:1003100003C0309521953F4FC40197FE03C09095CF
:1003200081959F4FAE0128173907F4F59801852F65
:100330009C2FA32FB02FBC01CD0120E030E44FE073
:1003400054E40E94B80C6B017C01AE019801852F2A
:100350009C2FA32FB02FBC01CD0129E23CE54FE833
:100360005EE30E94B80CFE01A8010F2F1C2F252F61
:10037000342FA90198010E94B80C20E030E040E839
:100380005FE30E94F10A9B01AC01C701B6010E9424
:10039000580B0E94C00BDC01CB01B7FE42C077FCBA
:1003A0003EC0885F984F3DC09801852F9C2FA32F9A
:1003B000B02FBC01CD0120E030E44FE054E40E94B6
:1003C000B80C6B017C01AE019801852F9C2FA32FE7
:1003D000B02FBC01CD01FE01A8010F2F1C2F252F2E
:1003E0003B2FA90198010E94B80C29E23CE54FE897
:1003F0005EE30E94F10A9B01AC01C701B6010E94B5
:10040000580B9B01AC0160E070E081E694E40E942F
:10041000F00A0E94C00BDC01CB0177FE02C08850BD
:100420009740DF91CF911F910F91FF90EF90DF9058
:10043000CF90BF90AF909F908F907F906F905F9084
:100440004F9008952F923F924F925F926F927F92BA
:100450008F929F92AF92BF92CF92DF92EF92FF92D4
:100460000F931F93CF93DF93CDB7DEB768970FB687
:10047000F894DEBF0FBECDBF0091790210917A02D1
:10048000B801882777FD8095982F0E94F30B0E9472
:10049000630D6B017C0180917702909178029C0141
:1004A000442737FD4095542F29833A834B835C833F
:1004B000CA01B9010E94F30B0E94630D9B01AC01BC
:1004C000C701B6010E94F10A0E94250D2B013C01D3
:1004D000C701B601A70196010E94F10A0E94250DED
:1004E0006B017C0117FF04C0F7FAF094F7F8F09461
:1004F0008090750290907602AA2497FCA094BA2C62
:10050000C301B2010E94C00B9B01AC01C501B40143
:100510000E9460019E838D8390938202809381026A
:10052000C701B6010E94C00B9B01AC0169817A81B1
:100530008B819C810E94600198878F8390938402B5
:10054000809383028091670290916802A091690272
:10055000B0916A0289879A87AB87BC87BC01CD01BD
:100560002AE939E34FE054E40E94580BC62E372E97
:10057000282E192F862F932DA22DB12FBC01CD012E
:100580000E94550B2B013C0160916F02709170022B
:10059000882777FD8095982F0E94F30BA301920185
:1005A0000E94B80C062FF72EE82ED92E2091630258
:1005B0003091640240916502509166022D873E871A
:1005C0004F87588BCA01B9012AE939E34FE054E457
:1005D0000E94580B0E941B0D4B015C018C2D932D2A
:1005E000A22DB12FBC01CD010E941B0D69837A831E
:1005F0008B839C83C501B40129813A814B815C8145
:100600000E94B80C0E94630D9B01AC0160E070E099
:1006100080E89FE30E94F00A0E94250D9B01AC0137
:10062000802F9F2DAE2DBD2DBC01CD010E94580BFA
:10063000362E272E8D8B9E8B6091730270917402E3
:10064000882777FD8095982F0E94F30B698B7A8B12
:100650008B8B9C8B29813A814B815C810E94B80CE9
:100660006F8B788F182F092FC501B401A301920158
:100670000E94B80C0E94630D9B01AC0160E070E029
:1006800080E89FE30E94F00A0E94250D4B015C0167
:100690004D815E81BA01882777FD8095982F0E9451
:1006A000F30B2AE037ED43E25CE30E94B80C6B01E8
:1006B0007C016D857E858F85988924EA30E74DE73A
:1006C0005FE30E94B80C9B01AC01C701B6010E9418
:1006D000F10A6B017C015F89488D9801852F942F69
:1006E000A32FB22FBC01CD01A50194010E94580B8C
:1006F0009B01AC01F1017D896E898F2F9E2FA72F61
:10070000B62FBC01CD010E94F10A21E93BE941EE7F
:100710005CE30E94B80C9B01AC01C701B6010E94CA
:10072000F10A9B01F82FE92F462F532F682F792FBD
:100730004093630250936402609365027093660273
:10074000822F932FAF2FBE2FBC01CD012AE939E3B1
:100750004FE054E40E94580BF62EC72EE82E192FB6
:10076000862F9C2DAE2DB12FBC01CD010E94550BC3
:100770004B015C016091710270917202882777FDD4
:100780008095982F0E94F30BA50194010E94B80C4C
:10079000462E072F782E692E8F2D9C2DAE2DB12F32
:1007A000BC01CD010E941B0D6B017C0169817A8126
:1007B0008B819C81A70196010E94B80C0E94630D59
:1007C00020E030E040E85FE30E94F10A0E94250D3E
:1007D0009B01AC01B301842D902FA72FB62FBC0134
:1007E000CD010E94580B062F772E682E592E69894D
:1007F0007A898B899C89A70196010E94B80C362EB4
:10080000272E182F492E69817A818B819C81A50121
:1008100094010E94B80C0E94630D9B01AC0160E042
:1008200070E080E89FE30E94F00A0E94250D4B01D2
:100830005C01AF81B885BD01882777FD8095982F31
:100840000E94F30B2AE037ED43E25CE30E94B80C10
:100850006B017C0169857A858B859C8524EA30E76C
:100860004DE75FE30E94B80C9B01AC01C701B601E4
:100870000E94F10A6B017C01A101852F942FA12F09
:10088000B42DBC01CD01A50194010E94580B9B0120
:10089000AC01802F972DA62DB52DBC01CD010E9456
:1008A000F00A21E93BE941EE5CE30E94B80C9B01B0
:1008B000AC01C701B6010E94F10ADC01CB018093B3
:1008C000670290936802A0936902B0936A026896E7
:1008D0000FB6F894DEBF0FBECDBFDF91CF911F9151
:1008E0000F91FF90EF90DF90CF90BF90AF909F90CF
:1008F0008F907F906F905F904F903F902F900895D2
:100900006091630270916402809165029091660229
:100910000E94C00B8091480190914901861B970B62
:10092000880F991F20916F0230917002821B930BE8
:100930009C01B901882777FD8095982F0E94F30BC1
:100940002DEC3CEC4CE45EE30E94B80C0E94C00B22
:10095000DC01CB0190933B0180933A0160916702E7
:10096000709168028091690290916A020E94C00BA6
:1009700080914A0190914B01861B970B880F991F1C
:100980002091710230917202821B930B9C01B9017C
:10099000882777FD8095982F0E94F30B2DEC3CEC77
:1009A0004CE45EE30E94B80C0E94C00BDC01CB015A
:1009B00090933D0180933C0180914E0190914F01B5
:1009C0002091730230917402821B930B90933F012C
:1009D00080933E010895A0914C01B0914D0120916A
:1009E0003A0130913B01FD01E20FF31F40913C01C0
:1009F00050913D0160913E0170913F01CF01841BF8
:100A0000950B861B970B9093920280939102CD01D8
:100A1000821B930B9C01840F951F861B970B909351
:100A2000940280939302241B350B260F371F3093BB
:100A30009602209395024E0F5F1F460F571F50934B
:100A4000980240939702E1E9F2E028EE33E04AE5AC
:100A500050E08081918163E0893E960714F03183F4
:100A60002083808191818A35910514F451834083DC
:100A7000AA30B10514F411821082329682E0E9396D
:100A8000F80739F708958091910290919202A3E0BE
:100A900095958795AA95E1F783588093B300809147
:100AA000930290919402B3E095958795BA95E1F7FA
:100AB00083588093B4008091950290919602959509
:100AC00087959595879586509F4F90938900809341
:100AD00088008091970290919802959587959595B9
:100AE000879586509F4F90938B0080938A0008953E
:100AF000219A229A239A539A259AF89414BC15BCE9
:100B000016BC8FE987BD84B5826084BD85B58160E0
:100B100085BDEEE6F0E0808182608083E8E6F0E06B
:100B2000808184608083EDE6F0E08081806F808347
:100B30007894A0E8B0E01C92E1E8F0E01082109216
:100B40008500109284008AEF90E090938900809352
:100B5000880090938B0080938A008C9180688C939E
:100B60008C9180628C938C9182608C938081886060
:100B70008083808182608083808181608083E0EBDC
:100B8000F0E01082A1EBB0E01C921092B2008DE771
:100B90008093B3008093B4008081806880838081DB
:100BA0008062808380818260808380818160808395
:100BB0008C9184608C938C9181608C9380E190E027
:100BC0000E94590A88E091E09093A8028093A702BE
:100BD0008CE08093B8000E9467000E940001089595
:100BE0001F920F920FB60F9211242F938F939F9302
:100BF00080915501909156010196909356018093F2
:100C0000550123E0893E92073CF081E08093540136
:100C100010925601109255019F918F912F910F9034
:100C20000FBE0F901F9018951F920F920FB60F9244
:100C300011242F933F934F935F938F939F9389B189
:100C400040915B0190E080729070242F30E0821719
:100C50009307A9F18091550190915601442339F1F0
:100C60002091400130914101821B930B90934101EF
:100C70008093400197FF06C088519C4F909341019B
:100C8000809340012091400130914101C901880FBA
:100C9000991F53E0220F331F5A95E1F7820F931FDC
:100CA0008C5D9540909349018093480104C09093D6
:100CB00041018093400189B1807280935B0189B1C9
:100CC00040915C0190E080719070242F30E0821799
:100CD0009307A9F18091550190915601442339F170
:100CE0002091420130914301821B930B9093430169
:100CF0008093420197FF06C088519C4F9093430117
:100D0000809342012091420130914301C901880F33
:100D1000991F53E0220F331F5A95E1F7820F931F5B
:100D20008C5D954090934B0180934A0104C0909351
:100D300043018093420189B1807180935C0189B144
:100D400040915A0190E080749070242F30E0821717
:100D50009307A9F18091550190915601442339F1EF
:100D60002091440130914501821B930B90934501E2
:100D70008093440197FF06C088519C4F9093450192
:100D8000809344012091440130914501C901880FAD
:100D9000991F53E0220F331F5A95E1F7820F931FDB
:100DA0008C54944090934D0180934C0104C09093D7
:100DB00045018093440189B1807480935A0189B1BF
:100DC0004091590190E080789070242F30E0821794
:100DD0009307A1F18091550190915601442331F17F
:100DE0002091460130914701821B930B909347015C
:100DF0008093460197FF06C088519C4F909347010E
:100E000080934601409146015091470126EF3FEF04
:100E1000429FC001439F900D529F900D1124845218
:100E20009A4F90934F0180934E0104C090934701D5
:100E30008093460189B18078809359019F918F9169
:100E40005F914F913F912F910F900FBE0F901F9088
:100E50001895CF92DF92EF92FF920F931F93CF934B
:100E6000DF93809152019091530101969093530129
:100E70008093520120915401213009F0D9C1109280
:100E8000540100D000D020E031E0EDB7FEB732834E
:100E90002183948383830E94B10D10925301109299
:100EA00052010F900F900F900F900E947C000E94B3
:100EB00026012091580180914E0190914F012223EB
:100EC00009F008C1F1E0833C9F0764F080914C0178
:100ED00090914D018A3091052CF4809157018F5FDC
:100EE0008093570180915701823309F051C081E00E
:100EF000809358016091990270919A0280919B02AF
:100F000090919C020E94C00B882777FD8095982FB6
:100F10000E94F30BDC01CB01809385029093860243
:100F2000A0938702B093880260919D0270919E0207
:100F300080919F029091A0020E94C00B882777FDAC
:100F40008095982F0E94F30BDC01CB0180938902DE
:100F500090938A02A0938B02B0938C026091A102BD
:100F60007091A2028091A3029091A4020E94C00BF2
:100F7000882777FD8095982F0E94F30BDC01CB0129
:100F800080938D0290938E02A0938F02B093900273
:100F90001092920210929102109294021092930277
:100FA0001092960210929502109298021092970257
:100FB0002D9860916F0270917002882777FD80955F
:100FC000982F0E94F30B2DEC3CEC4CEC5DE30E945F
:100FD000B80C6B017C016091990270919A0280912A
:100FE0009B0290919C0226E636E646E65FE30E946D
:100FF000B80C9B01AC01C701B6010E94F10ADC01EB
:10100000CB018093990290939A02A0939B02B09394
:101010009C026091710270917202882777FD809521
:10102000982F0E94F30B2DEC3CEC4CEC5DE30E94FE
:10103000B80C6B017C0160919D0270919E028091C1
:101040009F029091A00226E636E646E65FE30E9404
:10105000B80C9B01AC01C701B6010E94F10ADC018A
:10106000CB0180939D0290939E02A0939F02B09328
:10107000A0026091730270917402882777FD8095B9
:10108000982F0E94F30B2DEC3CEC4CEC5DE30E949E
:10109000B80C6B017C016091A1027091A202809159
:1010A000A3029091A40226E636E646E65FE30E949C
:1010B000B80C9B01AC01C701B6010E94F10ADC012A
:1010C000CB018093A1029093A202A093A302B093BC
:1010D000A40238C02EEF8E33920764F480914C0145
:1010E00090914D018A3091052CF4809157018150E7
:1010F00080935701809157018823E9F41092580199
:1011000080E090E0DC018093850290938602A093BA
:101110008702B09388028093890290938A02A093F9
:101120008B02B0938C0280938D0290938E02A093D9
:101130008F02B09390022D9A0E9422020E94800496
:101140000E94EB040E94430500D000D000E011E0B3
:10115000EDB7FEB71283018380914C0190914D0150
:10116000948383830E94B10DEDB7FEB71283018390
:101170008091480190914901948383830E94B10D2D
:10118000EDB7FEB71283018380914A0190914B0124
:10119000948383830E94B10DCDB7DEB72196EDB75E
:1011A000FEB71283018360916302709164028091A3
:1011B0006502909166020E94C00BDC01CB019B830B
:1011C0008A830E94B10DCDB7DEB72196EDB7FEB789
:1011D00012830183609167027091680280916902B5
:1011E00090916A020E94C00BDC01CB019B838A8331
:1011F0000E94B10DEDB7FEB71283018380916F029B
:1012000090917002948383830E94B10D84E091E0F9
:10121000EDB7FEB792838183809171029091720243
:10122000948383830E94B10D0F900F900F900F90C5
:10123000DF91CF911F910F91FF90EF90DF90CF90B2
:1012400008958FEF90E005C0019719F41092BC004B
:1012500008952091BC0027FFF7CF089584E980937B
:10126000BC000895CF93C82F882311F084EC01C0EF
:1012700084E88093BC000E9421098091BB00CC23AC
:1012800019F494E99093BC00CF9108950F931F93A4
:10129000CF93DF930F92CDB7DEB70CEB10E094EA5B
:1012A000F801908389830E94210989818093BB0082
:1012B00084E8F80180830E9421090F90DF91CF918B
:1012C0001F910F9108958093BB0084E88093BC0028
:1012D0000E9421090895CF93DF9300D0CDB7DEB7E8
:1012E000880F4A8369830E9446096981862F0E947C
:1012F00063094A81842F0E94630984E98093BC00BA
:101300000F900F90DF91CF910895CF92DF92EF92DF
:10131000FF920F931F93CF93DF9300D0CDB7DEB72B
:10132000F42EE52E880F816069837A830E94460936
:101330006981062F7A81172FCF2CDE2C0DC00894DF
:10134000C108D10881E0C114D10409F480E00E94F1
:101350003209F80181938F01C114D10481F78F2DD7
:101360009E2D0F900F90DF91CF911F910F91FF90C5
:10137000EF90DF90CF900895CF92DF92FF920F937E
:101380001F93CF93DF930F92CDB7DEB7F82E6A018C
:101390008901880F69830E9446096981862F0E940E
:1013A00063098F2DB601A8010E9485090F90DF9176
:1013B000CF911F910F91FF90DF90CF900895CF9321
:1013C000DF930F92CDB7DEB7AE014F5F5F4F21E0E5
:1013D00030E00E94BC0989810F90DF91CF91089580
:1013E0004BE752E026E030E00E94BC0908951F92CE
:1013F0000F920FB60F9211242F933F934F935F9349
:101400008F939F93EF93FF935091C0004091C6003C
:101410008091600190E001968F77907020915F013C
:1014200030E08217930749F0252F287180936001DF
:101430008D599E4FFC01408301C022E020935E0144
:10144000FF91EF919F918F915F914F913F912F91DC
:101450000F900FBE0F901F9018951F920F920FB60E
:101460000F9211248F939F93EF93FF9390916201BA
:1014700080916101981779F08091610190E0019667
:101480008F779070809361018D519E4FFC01808118
:101490008093C60005C08091C1008F7D8093C100FC
:1014A000FF91EF919F918F910F900FBE0F901F9022
:1014B00018951092620110926101109260011092D1
:1014C0005F0197FF04C022E02093C0009F779093B4
:1014D000C5008093C40088E98093C10086E08093B2
:1014E000C20008959091600180915F01981799F072
:1014F00080915F0190E001968F77907080935F01FB
:101500008D599E4FFC01208130915E01932F80E028
:10151000820F911D089580E091E0089590916001FF
:1015200080915F01981781F0E0915F01F0E03196C2
:10153000EF77F070ED59FE4F208130915E01932FCF
:1015400080E0820F911D089580E091E00895209140
:10155000620130E02F5F3F4F2F7730704091610183
:1015600050E024173507D1F3F901ED51FE4F808388
:10157000209362018091C10080628093C100089530
:10158000CF93DF93EC0102C00E94A70A89918823C0
:10159000D9F7DF91CF910895CF93DF93EC0102C08B
:1015A0000E94A70AFE01219684918823C9F7DF9142
:1015B000CF9108958091600120915F0190E0805863
:1015C0009F4F821B91098F779070089580915F01E2
:1015D0008093600108950E9478050E942907FDCF3D
:1015E0005058BB27AA270ED078C141D130F046D140
:1015F00020F031F49F3F11F41EF436C10EF4E09553
:10160000E7FB2CC1E92F8BD180F3BA176207730770
:101610008407950718F071F49EF5A3C10EF4E095C8
:101620000B2EBA2FA02D0B01B90190010C01CA019C
:10163000A0011124FF27591B99F0593F50F4503E47
:1016400068F11A16F040A22F232F342F4427585F39
:10165000F3CF469537952795A795F0405395C9F751
:101660007EF41F16BA0B620B730B840BBAF0915009
:10167000A1F0FF0FBB1F661F771F881FC2F70EC0A8
:10168000BA0F621F731F841F48F48795779567957B
:10169000B795F7959E3F08F0B3CF9395880F08F064
:1016A0009927EE0F979587950895F0D0E39526C179
:1016B0000CD013C1E3D040F0DAD030F021F45F3F1A
:1016C00019F0CCC051114EC1CFC029D198F3992344
:1016D000C9F35523B1F3951B550BBB27AA276217F6
:1016E0007307840738F09F5F5F4F220F331F441F3B
:1016F000AA1FA9F333D00E2E3AF0E0E830D0915073
:101700005040E695001CCAF729D0FE2F27D0660F5F
:10171000771F881FBB1F261737074807AB07B0E89E
:1017200009F0BB0B802DBF01FF2793585F4F2AF0B4
:101730009E3F510568F092C015C15F3FECF3983EA3
:10174000DCF3869577956795B795F7959F5FC9F711
:10175000880F911D9695879597F90895E1E0660F9A
:10176000771F881FBB1F621773078407BA0720F013
:10177000621B730B840BBA0BEE1F88F7E09508957C
:1017800004D06894B111EEC00895D1D088F09F576D
:1017900090F0B92F9927B751A0F0D1F0660F771FBD
:1017A000881F991F1AF0BA95C9F712C0B13081F09D
:1017B000D8D0B1E00895D5C0672F782F8827B85FBB
:1017C00039F0B93FCCF3869577956795B395D9F7FE
:1017D0003EF490958095709561957F4F8F4F9F4F08
:1017E0000895E89409C097FB3EF490958095709514
:1017F00061957F4F8F4F9F4F9923A9F0F92F96E95D
:10180000BB279395F695879577956795B795F111D1
:10181000F8CFFAF4BB0F11F460FF1BC06F5F7F4F6E
:101820008F4F9F4F16C0882311F096E911C0772380
:1018300021F09EE8872F762F05C0662371F096E889
:10184000862F70E060E02AF09A95660F771F881F58
:10185000DAF7880F9695879597F9089597F99F6716
:1018600080E870E060E008959FEF80EC0895002428
:101870000A941616170618060906089500240A94F5
:1018800012161306140605060895EECF50D0E8F39D
:10189000E894E0E0BB279F57F0F02AED3FE049ECE9
:1018A00006C0EE0FBB0F661F771F881F28F0B23AE5
:1018B00062077307840728F0B25A620B730B840B1C
:1018C000E3959A9572F7803830F49A95BB0F661FAE
:1018D000771F881FD2F79048FBC0092E0394000C95
:1018E00011F4882352F0BB0F40F4BF2B11F460FFBA
:1018F00004C06F5F7F4F8F4F9F4F0895EF93E0FFBE
:1019000006C0A2EA2AED3FE049EC5FEB7BDEE5DFB3
:101910000F90039401FC9058E8E6F0E0ECC057FD0E
:101920009058440F551F59F05F3F71F04795880F4D
:1019300097FB991F61F09F3F79F0879508951216E4
:1019400013061406551FF2CF4695F1DF08C0161690
:1019500017061806991FF1CF869571056105089441
:101960000895E894BB2766277727CB0197F9089558
:101970000BD0B3CF7CDF28F081DF18F0952309F07E
:101980006DCF72CF1124EECFCADFA0F3959FD1F3B4
:10199000950F50E0551F629FF001729FBB27F00D1D
:1019A000B11D639FAA27F00DB11DAA1F649F662772
:1019B000B00DA11D661F829F2227B00DA11D621FC1
:1019C000739FB00DA11D621F839FA00D611D221F7B
:1019D000749F3327A00D611D231F849F600D211D5F
:1019E000822F762F6A2F11249F5750408AF0E1F002
:1019F00088234AF0EE0FFF1FBB1F661F771F881F4B
:101A000091505040A9F79E3F510570F027CFAACFC3
:101A10005F3FECF3983EDCF3869577956795B79535
:101A2000F795E7959F5FC1F7FE2B880F911D96955F
:101A3000879597F908959F9329DF0F9007FCEE5F34
:101A40005DCF11F40EF410CF41C071DFD0F39923B4
:101A5000D9F3CEF39F57550B87FF46D00024A0E65D
:101A600040EA900180585695979528F4805C660F5F
:101A7000771F881F20F026173707480730F4621BAE
:101A8000730B840B202931294A2BA69517940794B0
:101A9000202531254A2758F7660F771F881F20F029
:101AA00026173707480730F4620B730B840B200DA1
:101AB000311D411DA09581F7B901842F9158880FE0
:101AC0009695879508959B01AC0152CF9F3F31F0C9
:101AD000915020F4879577956795B795880F911D5C
:101AE0009695879597F9089591505040660F771F06
:101AF000881FD2F708959F938F937F936F93FF93DF
:101B0000EF939B01AC0134DFEF91FF9105D02F9152
:101B10003F914F915F912CCFDF93CF931F930F9302
:101B2000FF92EF92DF927B018C01689405C0DA2E60
:101B3000EF012ADFFE01E894A591259135914591A9
:101B40005591AEF3EF015EDDFE019701A801DA9435
:101B500079F7DF90EF90FF900F911F91CF91DF9178
:101B60000895A0E0B0E0E7EBFDE00C945410FE0116
:101B70003596619171918091A7029091A802AF0171
:101B80000E94C60D2096E2E00C947010ADE0B0E02B
:101B9000ECECFDE00C9444103C017D876C875A010D
:101BA000FC0117821682838181FFC8C12E0108942F
:101BB000411C511CF3019381EC85FD8593FD8591BA
:101BC00093FF8191FD87EC87882309F4B3C18532A7
:101BD00041F493FD859193FF8191FD87EC878532D8
:101BE00029F490E0B3010E94BA0FE4CFFF24EE2461
:101BF00010E01032B0F48B3269F08C3228F480326D
:101C000051F0833271F40BC08D3239F0803349F4D6
:101C100011602CC01260146029C0186027C01061C8
:101C200025C017FD2EC0282F20532A3098F416FF08
:101C300008C08F2D880FF82EFF0CFF0CF80EF20E47
:101C400015C08E2D880FE82EEE0CEE0CE80EE20E7D
:101C500010620CC08E3221F416FD6CC1106406C0F7
:101C60008C3611F4106802C0883659F4EC85FD8575
:101C700093FD859193FF8191FD87EC87882309F07F
:101C8000B8CF982F9554933018F09052933038F481
:101C900024E030E0A20EB31E3FE339830FC0833649
:101CA00031F0833781F0833509F05AC022C0F50145
:101CB0008081898322E030E0A20EB31E21E0C22E93
:101CC000D12C420114C092E0292E312C2A0C3B1C4D
:101CD000F5018080918016FF03C06F2D70E002C077
:101CE0006FEF7FEFC4010E94AF0F6C0151011F77AE
:101CF00015C082E0282E312C2A0C3B1CF501808077
:101D0000918016FF03C06F2D70E002C06FEF7FEF70
:101D1000C4010E94A40F6C011068510113FD1CC086
:101D200006C080E290E0B3010E94BA0FEA948E2DC3
:101D300090E0C816D906A8F30FC0F40117FD8591ED
:101D400017FF81914F0190E0B3010E94BA0FE1109B
:101D5000EA940894C108D108C114D10471F7E7C00E
:101D6000843611F0893651F5F50117FF07C08081DF
:101D70009181A281B38124E030E008C0808191810B
:101D8000AA2797FDA095BA2F22E030E0A20EB31E3D
:101D9000012F0F76B7FF08C0B095A095909581955B
:101DA0009F4FAF4FBF4F0068BC01CD01A2012AE099
:101DB00030E00E94E60FD82ED4183FC0853721F4BA
:101DC0001F7E2AE030E020C0197F8F36A9F08037CF
:101DD00020F4883509F0AEC00BC0803721F0883779
:101DE00009F0A8C001C0106114FF09C0146007C049
:101DF00014FF08C0166006C028E030E005C020E1EE
:101E000030E002C020E132E0F50117FF07C0608139
:101E100071818281938144E050E006C060817181CC
:101E200080E090E042E050E0A40EB51EA2010E94C6
:101E3000E60FD82ED418012F0F7706FF09C00E7FAA
:101E4000DF1430F404FF06C002FD04C00F7E02C0A0
:101E50001D2D01C01F2D802F90E004FF0CC0FE013E
:101E6000ED0DF11D2081203311F4097E09C002FF20
:101E700006C01E5F05C086789070009709F01F5F4E
:101E8000802E992403FD12C000FF0DC0FD2C1E15ED
:101E900050F4FE0CF11A1E2D06C080E290E0B30152
:101EA0000E94BA0F1F5F1E15C0F304C01E1510F468
:101EB000E11A01C0EE2484FE0FC080E390E0B3017C
:101EC0000E94BA0F82FE1FC081FE03C088E590E029
:101ED00010C088E790E00DC0C4018678907000972C
:101EE00091F081FC02C080E201C08BE207FD8DE22F
:101EF00090E0B3010E94BA0F06C080E390E0B30106
:101F00000E94BA0FFA94DF14C0F3DA94F201ED0DD7
:101F1000F11D808190E0B3010E94BA0FDD20A9F786
:101F200006C080E290E0B3010E94BA0FEA94EE206E
:101F3000C1F740CEF3018681978102C08FEF9FEFFA
:101F40002D96E2E10C946010FC0105906150704008
:101F50000110D8F7809590958E0F9F1F0895FC0172
:101F60006150704001900110D8F7809590958E0FC8
:101F70009F1F08950F931F93CF93DF938C01EB0165
:101F80008B8181FF1BC082FF0DC02E813F818C8120
:101F90009D812817390764F4E881F9810193F98359
:101FA000E88306C0E885F985802F0995009731F40C
:101FB0008E819F8101969F838E8302C00FEF1FEF5A
:101FC000C801DF91CF911F910F910895FA01AA27BF
:101FD000283051F1203181F1E8946F936E7F6E5F6C
:101FE0007F4F8F4F9F4FAF4FB1E03ED0B4E03CD01A
:101FF000670F781F891F9A1FA11D680F791F8A1FFD
:10200000911DA11D6A0F711D811D911DA11D20D063
:1020100009F468943F912AE0269F11243019305D1D
:102020003193DEF6CF010895462F4770405D41930E
:10203000B3E00FD0C9F7F6CF462F4F70405D4A335B
:1020400018F0495D31FD4052419302D0A9F7EACF23
:10205000B4E0A6959795879577956795BA95C9F752
:1020600000976105710508959B01AC010A2E069445
:102070005795479537952795BA95C9F7620F731FFE
:10208000841F951FA01D08952F923F924F925F923B
:102090006F927F928F929F92AF92BF92CF92DF9278
:1020A000EF92FF920F931F93CF93DF93CDB7DEB7DD
:1020B000CA1BDB0B0FB6F894DEBF0FBECDBF099471
:1020C0002A88398848885F846E847D848C849B84C8
:1020D000AA84B984C884DF80EE80FD800C811B81D6
:1020E000AA81B981CE0FD11D0FB6F894DEBF0FBE05
:0A20F000CDBFED010895F894FFCF75
:1020FA002564090025640A000000000200000000AF
:06210A006200000000006D
:00000001FF
